:100000000C942A000C9434000C9434000C943400AA
:100010000C9434000C9434000C9434000C94340090
:100020000C9434000C9434000C9434000C94340080
:100030000C9434000C9434000C9434000C94340070
:100040000C9434000C9434000C9434000C94340060
:100050000C94340011241FBECFE5D4E0DEBFCDBF29
:100060000E9495060C94CB060C940000DF93CF936E
:1000700000D000D00F92CDB7DEB789836A834B835F
:100080008981282F30E03D832C838C819D818234AF
:10009000910509F444C02C813D812334310534F4A9
:1000A0008C819D818134910571F0BCC02C813D8192
:1000B0002334310509F45FC08C819D81843491051E
:1000C00009F485C0AFC08B818130A1F4AAE3B0E010
:1000D000EAE3F0E08081482F8A81282F30E081E038
:1000E00090E0022E02C0880F991F0A94E2F7842B39
:1000F0008C9398C0AAE3B0E0EAE3F0E08081482F57
:100100008A81282F30E081E090E0022E02C0880F23
:10011000991F0A94E2F7809584238C9383C08B8186
:100120008130A1F4A7E3B0E0E7E3F0E08081482F5D
:100130008A81282F30E081E090E0022E02C0880FF3
:10014000991F0A94E2F7842B8C936CC0A7E3B0E06C
:10015000E7E3F0E08081482F8A81282F30E081E0BA
:1001600090E0022E02C0880F991F0A94E2F7809552
:1001700084238C9357C08B818130A1F4A4E3B0E039
:10018000E4E3F0E08081482F8A81282F30E081E08D
:1001900090E0022E02C0880F991F0A94E2F7842B88
:1001A0008C9340C0A4E3B0E0E4E3F0E08081482F0A
:1001B0008A81282F30E081E090E0022E02C0880F73
:1001C000991F0A94E2F7809584238C932BC08B812E
:1001D0008130A1F4A1E3B0E0E1E3F0E08081482FB9
:1001E0008A81282F30E081E090E0022E02C0880F43
:1001F000991F0A94E2F7842B8C9314C0A1E3B0E01A
:10020000E1E3F0E08081482F8A81282F30E081E00F
:1002100090E0022E02C0880F991F0A94E2F78095A1
:1002200084238C930F900F900F900F900F90CF918D
:10023000DF910895DF93CF9300D000D00F92CDB718
:10024000DEB789836A834B838981282F30E03D8321
:100250002C838C819D818234910509F444C02C81CA
:100260003D812334310534F48C819D8181349105A5
:1002700071F0BCC02C813D812334310509F45FC08D
:100280008C819D818434910509F485C0AFC08B8138
:100290008130A1F4ABE3B0E0EBE3F0E08081482FE4
:1002A0008A81282F30E081E090E0022E02C0880F82
:1002B000991F0A94E2F7842B8C9398C0ABE3B0E0CB
:1002C000EBE3F0E08081482F8A81282F30E081E045
:1002D00090E0022E02C0880F991F0A94E2F78095E1
:1002E00084238C9383C08B818130A1F4A8E3B0E098
:1002F000E8E3F0E08081482F8A81282F30E081E018
:1003000090E0022E02C0880F991F0A94E2F7842B16
:100310008C936CC0A8E3B0E0E8E3F0E08081482F64
:100320008A81282F30E081E090E0022E02C0880F01
:10033000991F0A94E2F7809584238C9357C08B8190
:100340008130A1F4A5E3B0E0E5E3F0E08081482F3F
:100350008A81282F30E081E090E0022E02C0880FD1
:10036000991F0A94E2F7842B8C9340C0A5E3B0E078
:10037000E5E3F0E08081482F8A81282F30E081E09A
:1003800090E0022E02C0880F991F0A94E2F7809530
:1003900084238C932BC08B818130A1F4A2E3B0E045
:1003A000E2E3F0E08081482F8A81282F30E081E06D
:1003B00090E0022E02C0880F991F0A94E2F7842B66
:1003C0008C9314C0A2E3B0E0E2E3F0E08081482F18
:1003D0008A81282F30E081E090E0022E02C0880F51
:1003E000991F0A94E2F7809584238C930F900F90C5
:1003F0000F900F900F90CF91DF910895DF93CF93DF
:1004000000D000D00F92CDB7DEB78A836B831982FC
:100410008A81282F30E03D832C838C819D8182341A
:10042000910541F12C813D812334310534F48C81D7
:100430009D818134910561F052C02C813D8123342E
:10044000310551F18C819D8184349105B9F147C00A
:10045000E9E3F0E08081482F8B81282F30E081E0B4
:1004600090E0022E02C0880F991F0A94E2F78423BD
:10047000898335C0E6E3F0E08081482F8B81282F07
:1004800030E081E090E0022E02C0880F991F0A94AC
:10049000E2F78423898323C0E3E3F0E08081482FDF
:1004A0008B81282F30E081E090E0022E02C0880F7F
:1004B000991F0A94E2F78423898311C0E0E3F0E0F6
:1004C0008081482F8B81282F30E081E090E0022E40
:1004D00002C0880F991F0A94E2F7842389838981D7
:1004E0000F900F900F900F900F90CF91DF91089584
:1004F000DF93CF9300D000D0CDB7DEB789836A8376
:100500008981282F30E03C832B838B819C8182342E
:10051000910551F12B813C812334310534F48B81D9
:100520009C818134910561F05AC02B813C81233438
:10053000310571F18B819C8184349105E9F14FC0C3
:10054000ABE3B0E0EBE3F0E08081482F8A81282F15
:1005500030E081E090E0022E02C0880F991F0A94DB
:10056000E2F784278C933BC0A8E3B0E0E8E3F0E037
:100570008081482F8A81282F30E081E090E0022E90
:1005800002C0880F991F0A94E2F784278C9327C032
:10059000A5E3B0E0E5E3F0E08081482F8A81282FD1
:1005A00030E081E090E0022E02C0880F991F0A948B
:1005B000E2F784278C9313C0A2E3B0E0E2E3F0E01B
:1005C0008081482F8A81282F30E081E090E0022E40
:1005D00002C0880F991F0A94E2F784278C930F902A
:1005E0000F900F900F90CF91DF910895DF93CF93ED
:1005F00000D000D0CDB7DEB789836A838981282FE8
:1006000030E03C832B838B819C818234910511F1F6
:100610002B813C812334310534F48B819C818134DE
:10062000910561F03AC02B813C8123343105F1F012
:100630008B819C818434910529F12FC08A8181307E
:1006400029F4EAE3F0E08FEF808327C0EAE3F0E0EB
:10065000108223C08A81813029F4E7E3F0E08FEF34
:1006600080831BC0E7E3F0E0108217C08A818130ED
:1006700029F4E4E3F0E08FEF80830FC0E4E3F0E0DF
:1006800010820BC08A81813029F4E1E3F0E08FEF22
:10069000808303C0E1E3F0E010820F900F900F9091
:1006A0000F90CF91DF910895DF93CF9300D000D0CA
:1006B000CDB7DEB789836A838981282F30E03C83F8
:1006C0002B838B819C8182349105D9F02B813C81D5
:1006D0002334310534F48B819C818134910561F0A0
:1006E0001EC02B813C812334310581F08B819C819C
:1006F0008434910581F013C0EBE3F0E08A818083BC
:100700000EC0E8E3F0E08A81808309C0E5E3F0E011
:100710008A81808304C0E2E3F0E08A8180830F90C5
:100720000F900F900F90CF91DF910895DF93CF93AB
:1007300000D000D0CDB7DEB78A8319828A81282FF6
:1007400030E03C832B838B819C8182349105D9F0EE
:100750002B813C812334310534F48B819C8181349D
:10076000910561F01EC02B813C812334310581F05D
:100770008B819C818434910581F013C0E9E3F0E022
:10078000808189830EC0E6E3F0E08081898309C01F
:10079000E3E3F0E08081898304C0E0E3F0E080815E
:1007A000898389810F900F900F900F90CF91DF91E7
:1007B0000895DF93CF9300D000D00F92CDB7DEB76E
:1007C00089836A834B838981282F30E03D832C8382
:1007D0008C819D818234910509F444C02C813D8136
:1007E0002334310534F48C819D818134910571F07D
:1007F000BCC02C813D812334310509F45FC08C815C
:100800009D818434910509F485C0AFC08B8181300E
:10081000A1F4ABE3B0E0EBE3F0E08081482F8A8104
:10082000282F30E081E090E0022E02C0880F991F4F
:100830000A94E2F7842B8C9398C0ABE3B0E0EBE32F
:10084000F0E08081482F8A81282F30E081E090E01D
:10085000022E02C0880F991F0A94E2F78095842324
:100860008C9383C08B818130A1F4A8E3B0E0E8E3EE
:10087000F0E08081482F8A81282F30E081E090E0ED
:10088000022E02C0880F991F0A94E2F7842B8C93E2
:100890006CC0A8E3B0E0E8E3F0E08081482F8A81F3
:1008A000282F30E081E090E0022E02C0880F991FCF
:1008B0000A94E2F7809584238C9357C08B81813012
:1008C000A1F4A5E3B0E0E5E3F0E08081482F8A8160
:1008D000282F30E081E090E0022E02C0880F991F9F
:1008E0000A94E2F7842B8C9340C0A5E3B0E0E5E3E3
:1008F000F0E08081482F8A81282F30E081E090E06D
:10090000022E02C0880F991F0A94E2F78095842373
:100910008C932BC08B818130A1F4A2E3B0E0E2E3A1
:10092000F0E08081482F8A81282F30E081E090E03C
:10093000022E02C0880F991F0A94E2F7842B8C9331
:1009400014C0A2E3B0E0E2E3F0E08081482F8A81A6
:10095000282F30E081E090E0022E02C0880F991F1E
:100960000A94E2F7809584238C930F900F900F9058
:100970000F900F90CF91DF910895DF93CF9300D028
:1009800000D0CDB7DEB789836A838A818F708A836E
:100990008981282F30E03C832B838B819C8182349A
:1009A000910531F12B813C812334310534F48B8165
:1009B0009C818134910561F04AC02B813C812334B4
:1009C000310531F18B819C818434910589F13FC0DF
:1009D000ABE3B0E0EBE3F0E08081807F8C93ABE3AE
:1009E000B0E0EBE3F0E090818A81892B8C932FC0FB
:1009F000A8E3B0E0E8E3F0E08081807F8C93ABE394
:100A0000B0E0EBE3F0E090818A81892B8C931FC0EA
:100A1000A5E3B0E0E5E3F0E08081807F8C93ABE379
:100A2000B0E0EBE3F0E090818A81892B8C930FC0DA
:100A3000A2E3B0E0E2E3F0E08081807F8C93A2E368
:100A4000B0E0E2E3F0E090818A81892B8C930F90F3
:100A50000F900F900F90CF91DF910895DF93CF9378
:100A600000D000D0CDB7DEB789836A838A818295B2
:100A7000807F8A838981282F30E03C832B838B8180
:100A80009C818234910531F12B813C8123343105E5
:100A900034F48B819C818134910561F04AC02B81B3
:100AA0003C812334310531F18B819C818434910563
:100AB00089F13FC0ABE3B0E0EBE3F0E080818F7001
:100AC0008C93ABE3B0E0EBE3F0E090818A81892B7B
:100AD0008C932FC0A8E3B0E0E8E3F0E080818F7052
:100AE0008C93ABE3B0E0EBE3F0E090818A81892B5B
:100AF0008C931FC0A5E3B0E0E5E3F0E080818F7048
:100B00008C93ABE3B0E0EBE3F0E090818A81892B3A
:100B10008C930FC0A2E3B0E0E2E3F0E080818F703D
:100B20008C93A2E3B0E0E2E3F0E090818A81892B2C
:100B30008C930F900F900F900F90CF91DF910895AD
:100B4000DF93CF93CDB7DEB782E464E040E00E944C
:100B5000360082E465E040E00E94360082E466E010
:100B600040E00E94360082E467E040E00E943600E8
:100B700084E462E040E00E94360084E463E040E008
:100B80000E94360084E464E040E00E94360084E481
:100B900062E041E00E94D90384E463E041E00E9406
:100BA000D90384E464E041E00E94D903CF91DF914E
:100BB0000895DF93CF9300D0CDB7DEB70E94A00594
:100BC000198242C08981882341F08981982F9D5FD5
:100BD00082E4692F40E00E9436008981982F9C5F53
:100BE00082E4692F41E00E9436008981982F9C5F42
:100BF00082E4692F40E00E941A011A821FC08A8194
:100C0000982F9E5F84E4692F0E94FE01882399F447
:100C10008981282F30E0C901880F991F820F931F07
:100C2000982F8A81890F8F5F0E9429060F900F905D
:100C3000CF91DF9108958A818F5F8A838A81833083
:100C4000F0F289818F5F89838981833008F4BACF7C
:100C5000B5CFDF93CF9300D000D0CDB7DEB7898377
:100C60008981282F30E03C832B838B819C818530C8
:100C7000910509F441C02B813C8126303105DCF41B
:100C80008B819C818230910571F12B813C812330D5
:100C9000310534F48B819C818130910509F13BC091
:100CA0002B813C812330310509F18B819C8184307B
:100CB0009105F9F030C02B813C812730310511F1CD
:100CC0008B819C8187309105D4F02B813C81283029
:100CD0003105D9F08B819C8189309105C9F01BC009
:100CE00091E39A831AC022E32A8317C033E33A833D
:100CF00014C084E38A8311C095E39A830EC026E36F
:100D00002A830BC037E33A8308C088E38A8305C08F
:100D100099E39A8302C020E32A838A810F900F907F
:100D20000F900F90CF91DF910895DF93CF93CDB7C0
:100D3000DEB7AAE3B0E0EAE3F0E0808184608C9360
:100D4000ABE3B0E0EBE3F0E0808184608C9380E083
:100D50000E94AF060E94D9050E94AF06FBCFDF9329
:100D6000CF930F92CDB7DEB7898381E461E00E9413
:100D7000F60283E466E041E00E94360083E466E028
:100D800040E00E941A0181E469810E9454030F909F
:0A0D9000CF91DF910895F894FFCF92
:00000001FF
